S019000057617465725F6C6576656C5F377365676D2E737265634F
S113000014C07EC22BC02AC029C028C027C026C065
S113001025C024C023C022C021C0EDC11FC01EC002
S11300201DC01CC047C21AC019C011241FBECFED89
S1130030CDBF10E0A0E6B0E0EEEEF5E002C0059022
S11300400D92A637B107D9F720E0A6E7B0E001C0CA
S11300501D92A139B207E1F739D1C7C2D1CF8FEFD1
S113006087BB81B3826781BB889A18BA96989598A2
S1130070949890989198939A80B7826080BF83E314
S113008086BF83B7846083BF89B7816089BF8EB51B
S113009082608EBD85B7886085BFF894A89581B5C8
S11300A0886181BD81B58F6081BD81B5806481BD6A
S11300B078940895909A8DE000008150E9F7909823
S11300C085B7836085BF8BB780648BBF0895E0914B
S11300D07600F0E0EE0FFF1FE058FF4F918380831E
S11300E02091760030E02F5F3F4F27703327209315
S11300F0760020917B0027FD0DC0E2E8F0E08193BB
S1130100919320E0E039F207D1F780917B00806879
S113011080937B00E0E8F0E080E090E02191319171
S1130120820F931F20E0E039F207C1F797FD07968D
S113013023E0959587952A95E1F70895F894109210
S11301407400109273001092720080917700909165
S113015078001816190694F08AE08093740080934E
S113016073008093720080917B0083FD58C0919A44
S113017080917B00886080937B0051C080917700E0
S113018090917800853A910544F08BE08093740057
S11301908CE0809373008DE040C080917B0083FFEE
S11301A00CC08091770090917800059734F0919875
S11301B080917B00877F80937B0080917700909172
S11301C078008436910584F0809174008F5F809369
S11301D074008091770090917800845691099093EF
S11301E0780080937700E9CF809177009091780030
S11301F00A977CF0809173008F5F809373008091E5
S11302007700909178000A97909378008093770014
S1130210EBCF80917700909178008093720078946E
S1130220089580917B0085FD1CC080917B0086FD34
S113023018C0F894A89581B5886181BD11BC8091DE
S11302407B00806280937B00919880917B00877F04
S113025080937B00109274008EE0809373008FE093
S11302601AC080917B0085FF1AC0F89480917B00AE
S11302708F7D80937B0080917B00806480937B00E2
S1130280919A80917B00886080937B001092740027
S11302908BE080937300809372007894089580912A
S11302A07B0086FF12C0F89480917B008F7B809343
S11302B07B00A89581B5886181BD81B58F6081BDC2
S11302C081B5806481BD7894F5CE0895C8DE8FEA47
S11302D0C82E85E0D82EE12CF12C9EEB292E312C52
S11302E027ED822E25E0922EA12CB12C02EA10E0FB
S11302F034E5432E36E0532E612C712CC6EBD0E04E
S113030080917B0081FF64C080917C0090917D008E
S1130310A0917E00B0917F008D3C9140A105B10574
S113032090F460917C0070917D0080917E009091AA
S11303307F0026EB30E040E050E01CD1A3019201A5
S113034032D1CE0130C080917C0090917D00A0918B
S11303507E00B0917F008C3E9440A105B10590F0E1
S113036060917C0070917D0080917E0090917F006F
S113037022EA30E040E050E0FDD0A501940113D121
S1130380C80111C060917C0070917D0080917E0055
S113039090917F002EEB30E040E050E0EBD0A701DD
S11303A0960101D1C101821B930B90937A00809333
S11303B079008091790090917A0089DE9093780099
S11303C080937700BBDE80917B008D7F80937B00E0
S11303D080917B0084FF0DC080919000883748F0A5
S11303E020DF80917B008F7E80937B008BB78068B9
S11303F08BBF000085CF1F920F920FB60F9211246E
S11304008F93EF93FF9380917100823009F18330D1
S1130410B9F1813009F041C095989498E091740045
S1130420F0E0E05AFF4F808188BB809171008F5FBC
S11304308093710080917B0085FD08C080917B00D2
S113044086FD04C080917400882339F1969A25C0F2
S113045096989498E0917300F0E0E05AFF4F808101
S113046088BB809171008F5F8093710080917400CC
S1130470811104C080917300882379F0959A0DC08E
S113048096989598E0917200F0E0E05AFF4F8081D1
S113049088BB81E080937100949A809190008F5F73
S11304A080939000FF91EF918F910F900FBE0F906A
S11304B01F9018951F920F920FB60F9211242F932D
S11304C03F934F935F936F937F938F939F93AF93D8
S11304D0BF93EF93FF93EEDD81B5806481BDFF91FF
S11304E0EF91BF91AF919F918F917F916F915F91A8
S11304F04F913F912F910F900FBE0F901F90189521
S11305001F920F920FB60F9211248F939F93AF9364
S1130510BF9380917B0080FD0BC01DBC1CBC8091EF
S11305207B00816080937B0085B78E7F85BF19C077
S11305308CB59DB5A0E0B0E080937C0090937D00E5
S1130540A0937E00B0937F0080917B008E7F809388
S11305507B0080917B00826080937B008BB78F7BD4
S11305608BBFBF91AF919F918F910F900FBE0F9052
S11305701F901895EE27FF27AA27BB2708C0A20FB4
S1130580B31FE41FF51F220F331F441F551F9695F9
S113059087957795679598F37040A9F7009799F731
S11305A0BD01CF010895A1E21A2EAA1BBB1BFD01B8
S11305B00DC0AA1FBB1FEE1FFF1FA217B307E4073E
S11305C0F50720F0A21BB30BE40BF50B661F771F96
S11305D0881F991F1A9469F7609570958095909576
S11105E09B01AC01BD01CF010895F894FFCF3B
S11305EE3F065B4F666D7D077F6F40713E3854004A
S10905FE49011010100079
S9030000FC
